{
    "contractName": "MultiSigWallet",
    "abi": [
        {
            "constant": true,
            "inputs": [
                {
                    "name": "",
                    "type": "uint256"
                }
            ],
            "name": "owners",
            "outputs": [
                {
                    "name": "",
                    "type": "address"
                }
            ],
            "payable": false,
            "stateMutability": "view",
            "type": "function"
        },
        {
            "constant": false,
            "inputs": [
                {
                    "name": "owner",
                    "type": "address"
                }
            ],
            "name": "removeOwner",
            "outputs": [],
            "payable": false,
            "stateMutability": "nonpayable",
            "type": "function"
        },
        {
            "constant": false,
            "inputs": [
                {
                    "name": "transactionId",
                    "type": "uint256"
                }
            ],
            "name": "revokeConfirmation",
            "outputs": [],
            "payable": false,
            "stateMutability": "nonpayable",
            "type": "function"
        },
        {
            "constant": true,
            "inputs": [
                {
                    "name": "",
                    "type": "address"
                }
            ],
            "name": "isOwner",
            "outputs": [
                {
                    "name": "",
                    "type": "bool"
                }
            ],
            "payable": false,
            "stateMutability": "view",
            "type": "function"
        },
        {
            "constant": true,
            "inputs": [
                {
                    "name": "",
                    "type": "uint256"
                },
                {
                    "name": "",
                    "type": "address"
                }
            ],
            "name": "confirmations",
            "outputs": [
                {
                    "name": "",
                    "type": "bool"
                }
            ],
            "payable": false,
            "stateMutability": "view",
            "type": "function"
        },
        {
            "constant": true,
            "inputs": [
                {
                    "name": "pending",
                    "type": "bool"
                },
                {
                    "name": "executed",
                    "type": "bool"
                }
            ],
            "name": "getTransactionCount",
            "outputs": [
                {
                    "name": "count",
                    "type": "uint256"
                }
            ],
            "payable": false,
            "stateMutability": "view",
            "type": "function"
        },
        {
            "constant": false,
            "inputs": [
                {
                    "name": "owner",
                    "type": "address"
                }
            ],
            "name": "addOwner",
            "outputs": [],
            "payable": false,
            "stateMutability": "nonpayable",
            "type": "function"
        },
        {
            "constant": true,
            "inputs": [
                {
                    "name": "transactionId",
                    "type": "uint256"
                }
            ],
            "name": "isConfirmed",
            "outputs": [
                {
                    "name": "",
                    "type": "bool"
                }
            ],
            "payable": false,
            "stateMutability": "view",
            "type": "function"
        },
        {
            "constant": true,
            "inputs": [
                {
                    "name": "transactionId",
                    "type": "uint256"
                }
            ],
            "name": "getConfirmationCount",
            "outputs": [
                {
                    "name": "count",
                    "type": "uint256"
                }
            ],
            "payable": false,
            "stateMutability": "view",
            "type": "function"
        },
        {
            "constant": true,
            "inputs": [
                {
                    "name": "",
                    "type": "uint256"
                }
            ],
            "name": "transactions",
            "outputs": [
                {
                    "name": "destination",
                    "type": "address"
                },
                {
                    "name": "value",
                    "type": "uint256"
                },
                {
                    "name": "data",
                    "type": "bytes"
                },
                {
                    "name": "executed",
                    "type": "bool"
                }
            ],
            "payable": false,
            "stateMutability": "view",
            "type": "function"
        },
        {
            "constant": true,
            "inputs": [],
            "name": "getOwners",
            "outputs": [
                {
                    "name": "",
                    "type": "address[]"
                }
            ],
            "payable": false,
            "stateMutability": "view",
            "type": "function"
        },
        {
            "constant": true,
            "inputs": [
                {
                    "name": "from",
                    "type": "uint256"
                },
                {
                    "name": "to",
                    "type": "uint256"
                },
                {
                    "name": "pending",
                    "type": "bool"
                },
                {
                    "name": "executed",
                    "type": "bool"
                }
            ],
            "name": "getTransactionIds",
            "outputs": [
                {
                    "name": "_transactionIds",
                    "type": "uint256[]"
                }
            ],
            "payable": false,
            "stateMutability": "view",
            "type": "function"
        },
        {
            "constant": true,
            "inputs": [
                {
                    "name": "transactionId",
                    "type": "uint256"
                }
            ],
            "name": "getConfirmations",
            "outputs": [
                {
                    "name": "_confirmations",
                    "type": "address[]"
                }
            ],
            "payable": false,
            "stateMutability": "view",
            "type": "function"
        },
        {
            "constant": true,
            "inputs": [],
            "name": "transactionCount",
            "outputs": [
                {
                    "name": "",
                    "type": "uint256"
                }
            ],
            "payable": false,
            "stateMutability": "view",
            "type": "function"
        },
        {
            "constant": false,
            "inputs": [
                {
                    "name": "_required",
                    "type": "uint256"
                }
            ],
            "name": "changeRequirement",
            "outputs": [],
            "payable": false,
            "stateMutability": "nonpayable",
            "type": "function"
        },
        {
            "constant": false,
            "inputs": [
                {
                    "name": "transactionId",
                    "type": "uint256"
                }
            ],
            "name": "confirmTransaction",
            "outputs": [],
            "payable": false,
            "stateMutability": "nonpayable",
            "type": "function"
        },
        {
            "constant": false,
            "inputs": [
                {
                    "name": "destination",
                    "type": "address"
                },
                {
                    "name": "value",
                    "type": "uint256"
                },
                {
                    "name": "data",
                    "type": "bytes"
                }
            ],
            "name": "submitTransaction",
            "outputs": [
                {
                    "name": "transactionId",
                    "type": "uint256"
                }
            ],
            "payable": false,
            "stateMutability": "nonpayable",
            "type": "function"
        },
        {
            "constant": true,
            "inputs": [],
            "name": "MAX_OWNER_COUNT",
            "outputs": [
                {
                    "name": "",
                    "type": "uint256"
                }
            ],
            "payable": false,
            "stateMutability": "view",
            "type": "function"
        },
        {
            "constant": true,
            "inputs": [],
            "name": "required",
            "outputs": [
                {
                    "name": "",
                    "type": "uint256"
                }
            ],
            "payable": false,
            "stateMutability": "view",
            "type": "function"
        },
        {
            "constant": false,
            "inputs": [
                {
                    "name": "owner",
                    "type": "address"
                },
                {
                    "name": "newOwner",
                    "type": "address"
                }
            ],
            "name": "replaceOwner",
            "outputs": [],
            "payable": false,
            "stateMutability": "nonpayable",
            "type": "function"
        },
        {
            "constant": false,
            "inputs": [
                {
                    "name": "transactionId",
                    "type": "uint256"
                }
            ],
            "name": "executeTransaction",
            "outputs": [],
            "payable": false,
            "stateMutability": "nonpayable",
            "type": "function"
        },
        {
            "inputs": [
                {
                    "name": "_owners",
                    "type": "address[]"
                },
                {
                    "name": "_required",
                    "type": "uint256"
                }
            ],
            "payable": false,
            "stateMutability": "nonpayable",
            "type": "constructor"
        },
        {
            "payable": true,
            "stateMutability": "payable",
            "type": "fallback"
        },
        {
            "anonymous": false,
            "inputs": [
                {
                    "indexed": true,
                    "name": "sender",
                    "type": "address"
                },
                {
                    "indexed": true,
                    "name": "transactionId",
                    "type": "uint256"
                }
            ],
            "name": "Confirmation",
            "type": "event"
        },
        {
            "anonymous": false,
            "inputs": [
                {
                    "indexed": true,
                    "name": "sender",
                    "type": "address"
                },
                {
                    "indexed": true,
                    "name": "transactionId",
                    "type": "uint256"
                }
            ],
            "name": "Revocation",
            "type": "event"
        },
        {
            "anonymous": false,
            "inputs": [
                {
                    "indexed": true,
                    "name": "transactionId",
                    "type": "uint256"
                }
            ],
            "name": "Submission",
            "type": "event"
        },
        {
            "anonymous": false,
            "inputs": [
                {
                    "indexed": true,
                    "name": "transactionId",
                    "type": "uint256"
                }
            ],
            "name": "Execution",
            "type": "event"
        },
        {
            "anonymous": false,
            "inputs": [
                {
                    "indexed": true,
                    "name": "transactionId",
                    "type": "uint256"
                }
            ],
            "name": "ExecutionFailure",
            "type": "event"
        },
        {
            "anonymous": false,
            "inputs": [
                {
                    "indexed": true,
                    "name": "sender",
                    "type": "address"
                },
                {
                    "indexed": false,
                    "name": "value",
                    "type": "uint256"
                }
            ],
            "name": "Deposit",
            "type": "event"
        },
        {
            "anonymous": false,
            "inputs": [
                {
                    "indexed": true,
                    "name": "owner",
                    "type": "address"
                }
            ],
            "name": "OwnerAddition",
            "type": "event"
        },
        {
            "anonymous": false,
            "inputs": [
                {
                    "indexed": true,
                    "name": "owner",
                    "type": "address"
                }
            ],
            "name": "OwnerRemoval",
            "type": "event"
        },
        {
            "anonymous": false,
            "inputs": [
                {
                    "indexed": false,
                    "name": "required",
                    "type": "uint256"
                }
            ],
            "name": "RequirementChange",
            "type": "event"
        }
    ],
    "bytecode": "60806040523480156200001157600080fd5b50604051620016d5380380620016d583398101604052805160208201519101805190919060009082603282118015906200004b5750818111155b80156200005757508015155b80156200006357508115155b15156200006f57600080fd5b600092505b845183101562000147576002600086858151811015156200009157fe5b6020908102909101810151600160a060020a031682528101919091526040016000205460ff16158015620000e757508483815181101515620000cf57fe5b90602001906020020151600160a060020a0316600014155b1515620000f357600080fd5b60016002600087868151811015156200010857fe5b602090810291909101810151600160a060020a03168252810191909152604001600020805460ff19169115159190911790556001929092019162000074565b84516200015c9060039060208801906200016e565b50505060049190915550620002029050565b828054828255906000526020600020908101928215620001c6579160200282015b82811115620001c65782518254600160a060020a031916600160a060020a039091161782556020909201916001909101906200018f565b50620001d4929150620001d8565b5090565b620001ff91905b80821115620001d4578054600160a060020a0319168155600101620001df565b90565b6114c380620002126000396000f30060806040526004361061011c5763ffffffff7c0100000000000000000000000000000000000000000000000000000000600035041663025e7c27811461015e578063173825d91461019257806320ea8d86146101b35780632f54bf6e146101cb5780633411c81c1461020057806354741525146102245780637065cb4814610255578063784547a7146102765780638b51d13f1461028e5780639ace38c2146102a6578063a0e67e2b14610361578063a8abe69a146103c6578063b5dc40c3146103eb578063b77bf60014610403578063ba51a6df14610418578063c01a8c8414610430578063c642747414610448578063d74f8edd146104b1578063dc8452cd146104c6578063e20056e6146104db578063ee22610b14610502575b600034111561015c5760408051348152905133917fe1fffcc4923d04b559f4d29a8bfc6cda04eb5b0d3c460751c2402c5c5cc9109c919081900360200190a25b005b34801561016a57600080fd5b5061017660043561051a565b60408051600160a060020a039092168252519081900360200190f35b34801561019e57600080fd5b5061015c600160a060020a0360043516610542565b3480156101bf57600080fd5b5061015c6004356106b9565b3480156101d757600080fd5b506101ec600160a060020a0360043516610773565b604080519115158252519081900360200190f35b34801561020c57600080fd5b506101ec600435600160a060020a0360243516610788565b34801561023057600080fd5b50610243600435151560243515156107a8565b60408051918252519081900360200190f35b34801561026157600080fd5b5061015c600160a060020a0360043516610814565b34801561028257600080fd5b506101ec600435610939565b34801561029a57600080fd5b506102436004356109bd565b3480156102b257600080fd5b506102be600435610a2c565b6040518085600160a060020a0316600160a060020a031681526020018481526020018060200183151515158152602001828103825284818151815260200191508051906020019080838360005b8381101561032357818101518382015260200161030b565b50505050905090810190601f1680156103505780820380516001836020036101000a031916815260200191505b509550505050505060405180910390f35b34801561036d57600080fd5b50610376610aea565b60408051602080825283518183015283519192839290830191858101910280838360005b838110156103b257818101518382015260200161039a565b505050509050019250505060405180910390f35b3480156103d257600080fd5b5061037660043560243560443515156064351515610b4d565b3480156103f757600080fd5b50610376600435610c86565b34801561040f57600080fd5b50610243610dff565b34801561042457600080fd5b5061015c600435610e05565b34801561043c57600080fd5b5061015c600435610e84565b34801561045457600080fd5b50604080516020600460443581810135601f8101849004840285018401909552848452610243948235600160a060020a0316946024803595369594606494920191908190840183828082843750949750610f4f9650505050505050565b3480156104bd57600080fd5b50610243610f6e565b3480156104d257600080fd5b50610243610f73565b3480156104e757600080fd5b5061015c600160a060020a0360043581169060243516610f79565b34801561050e57600080fd5b5061015c600435611103565b600380548290811061052857fe5b600091825260209091200154600160a060020a0316905081565b600033301461055057600080fd5b600160a060020a038216600090815260026020526040902054829060ff16151561057957600080fd5b600160a060020a0383166000908152600260205260408120805460ff1916905591505b600354600019018210156106545782600160a060020a03166003838154811015156105c357fe5b600091825260209091200154600160a060020a03161415610649576003805460001981019081106105f057fe5b60009182526020909120015460038054600160a060020a03909216918490811061061657fe5b9060005260206000200160006101000a815481600160a060020a030219169083600160a060020a03160217905550610654565b60019091019061059c565b60038054600019019061066790826113d6565b5060035460045411156106805760035461068090610e05565b604051600160a060020a038416907f8001553a916ef2f495d26a907cc54d96ed840d7bda71e73194bf5a9df7a76b9090600090a2505050565b3360008181526002602052604090205460ff1615156106d757600080fd5b60008281526001602090815260408083203380855292529091205483919060ff16151561070357600080fd5b600084815260208190526040902060030154849060ff161561072457600080fd5b6000858152600160209081526040808320338085529252808320805460ff191690555187927ff6a317157440607f36269043eb55f1287a5a19ba2216afeab88cd46cbcfb88e991a35050505050565b60026020526000908152604090205460ff1681565b600160209081526000928352604080842090915290825290205460ff1681565b6000805b60055481101561080d578380156107d5575060008181526020819052604090206003015460ff16155b806107f957508280156107f9575060008181526020819052604090206003015460ff165b15610805576001820191505b6001016107ac565b5092915050565b33301461082057600080fd5b600160a060020a038116600090815260026020526040902054819060ff161561084857600080fd5b81600160a060020a038116151561085e57600080fd5b6003805490506001016004546032821115801561087b5750818111155b801561088657508015155b801561089157508115155b151561089c57600080fd5b600160a060020a038516600081815260026020526040808220805460ff1916600190811790915560038054918201815583527fc2575a0e9e593c00f959f8c92f12db2869c3395a3b0502d05e2516446f71f85b01805473ffffffffffffffffffffffffffffffffffffffff191684179055517ff39e6e1eb0edcf53c221607b54b00cd28f3196fed0a24994dc308b8f611b682d9190a25050505050565b600080805b6003548110156109b6576000848152600160205260408120600380549192918490811061096757fe5b6000918252602080832090910154600160a060020a0316835282019290925260400190205460ff161561099b576001820191505b6004548214156109ae57600192506109b6565b60010161093e565b5050919050565b6000805b600354811015610a2657600083815260016020526040812060038054919291849081106109ea57fe5b6000918252602080832090910154600160a060020a0316835282019290925260400190205460ff1615610a1e576001820191505b6001016109c1565b50919050565b6000602081815291815260409081902080546001808301546002808501805487516101009582161595909502600019011691909104601f8101889004880284018801909652858352600160a060020a0390931695909491929190830182828015610ad75780601f10610aac57610100808354040283529160200191610ad7565b820191906000526020600020905b815481529060010190602001808311610aba57829003601f168201915b5050506003909301549192505060ff1684565b60606003805480602002602001604051908101604052809291908181526020018280548015610b4257602002820191906000526020600020905b8154600160a060020a03168152600190910190602001808311610b24575b505050505090505b90565b606080600080600554604051908082528060200260200182016040528015610b7f578160200160208202803883390190505b50925060009150600090505b600554811015610c0657858015610bb4575060008181526020819052604090206003015460ff16155b80610bd85750848015610bd8575060008181526020819052604090206003015460ff165b15610bfe57808383815181101515610bec57fe5b60209081029091010152600191909101905b600101610b8b565b878703604051908082528060200260200182016040528015610c32578160200160208202803883390190505b5093508790505b86811015610c7b578281815181101515610c4f57fe5b9060200190602002015184898303815181101515610c6957fe5b60209081029091010152600101610c39565b505050949350505050565b606080600080600380549050604051908082528060200260200182016040528015610cbb578160200160208202803883390190505b50925060009150600090505b600354811015610d785760008581526001602052604081206003805491929184908110610cf057fe5b6000918252602080832090910154600160a060020a0316835282019290925260400190205460ff1615610d70576003805482908110610d2b57fe5b6000918252602090912001548351600160a060020a0390911690849084908110610d5157fe5b600160a060020a03909216602092830290910190910152600191909101905b600101610cc7565b81604051908082528060200260200182016040528015610da2578160200160208202803883390190505b509350600090505b81811015610df7578281815181101515610dc057fe5b906020019060200201518482815181101515610dd857fe5b600160a060020a03909216602092830290910190910152600101610daa565b505050919050565b60055481565b333014610e1157600080fd5b6003548160328211801590610e265750818111155b8015610e3157508015155b8015610e3c57508115155b1515610e4757600080fd5b60048390556040805184815290517fa3f1ee9126a074d9326c682f561767f710e927faa811f7a99829d49dc421797a9181900360200190a1505050565b3360008181526002602052604090205460ff161515610ea257600080fd5b6000828152602081905260409020548290600160a060020a03161515610ec757600080fd5b60008381526001602090815260408083203380855292529091205484919060ff1615610ef257600080fd5b6000858152600160208181526040808420338086529252808420805460ff1916909317909255905187927f4a504a94899432a9846e1aa406dceb1bcfd538bb839071d49d1e5e23f5be30ef91a3610f4885611103565b5050505050565b6000610f5c8484846112c3565b9050610f6781610e84565b9392505050565b603281565b60045481565b6000333014610f8757600080fd5b600160a060020a038316600090815260026020526040902054839060ff161515610fb057600080fd5b600160a060020a038316600090815260026020526040902054839060ff1615610fd857600080fd5b600092505b6003548310156110695784600160a060020a031660038481548110151561100057fe5b600091825260209091200154600160a060020a0316141561105e578360038481548110151561102b57fe5b9060005260206000200160006101000a815481600160a060020a030219169083600160a060020a03160217905550611069565b600190920191610fdd565b600160a060020a03808616600081815260026020526040808220805460ff1990811690915593881682528082208054909416600117909355915190917f8001553a916ef2f495d26a907cc54d96ed840d7bda71e73194bf5a9df7a76b9091a2604051600160a060020a038516907ff39e6e1eb0edcf53c221607b54b00cd28f3196fed0a24994dc308b8f611b682d90600090a25050505050565b3360008181526002602052604081205490919060ff16151561112457600080fd5b60008381526001602090815260408083203380855292529091205484919060ff16151561115057600080fd5b600085815260208190526040902060030154859060ff161561117157600080fd5b61117a86610939565b156112bb576000868152602081815260409182902060038101805460ff19166001908117909155815481830154600280850180548851601f60001997831615610100029790970190911692909204948501879004870282018701909752838152939a5061124e95600160a060020a03909216949093919083908301828280156112445780601f1061121957610100808354040283529160200191611244565b820191906000526020600020905b81548152906001019060200180831161122757829003601f168201915b50505050506113b3565b156112835760405186907f33e13ecb54c3076d8e8bb8c2881800a4d972b792045ffae98fdf46df365fed7590600090a26112bb565b60405186907f526441bb6c1aba3c9a4a6ca1d6545da9c2333c8c48343ef398eb858d72b7923690600090a260038501805460ff191690555b505050505050565b600083600160a060020a03811615156112db57600080fd5b60055460408051608081018252600160a060020a0388811682526020808301898152838501898152600060608601819052878152808452959095208451815473ffffffffffffffffffffffffffffffffffffffff19169416939093178355516001830155925180519496509193909261135b9260028501929101906113ff565b50606091909101516003909101805460ff191691151591909117905560058054600101905560405182907fc0ba8fe4b176c1714197d43b9cc6bcf797a4a7461c5fe8d0ef6e184ae7601e5190600090a2509392505050565b6000806040516020840160008287838a8c6187965a03f198975050505050505050565b8154818355818111156113fa576000838152602090206113fa91810190830161147d565b505050565b828054600181600116156101000203166002900490600052602060002090601f016020900481019282601f1061144057805160ff191683800117855561146d565b8280016001018555821561146d579182015b8281111561146d578251825591602001919060010190611452565b5061147992915061147d565b5090565b610b4a91905b8082111561147957600081556001016114835600a165627a7a723058205d7bc057a6771f16783c4054db2ce0589ab48f72637b5f4c16e5fe983892938d0029",
    "sourcePath": "/home/robert/Documents/HOPR/walletConnect/contracts/contract.sol",
    "compiler": {
        "name": "solc",
        "version": "0.4.26+commit.4563c3fc"
    },
    "functionHashes": {
        "MAX_OWNER_COUNT()": "d74f8edd",
        "addOwner(address)": "7065cb48",
        "changeRequirement(uint256)": "ba51a6df",
        "confirmTransaction(uint256)": "c01a8c84",
        "confirmations(uint256,address)": "3411c81c",
        "executeTransaction(uint256)": "ee22610b",
        "getConfirmationCount(uint256)": "8b51d13f",
        "getConfirmations(uint256)": "b5dc40c3",
        "getOwners()": "a0e67e2b",
        "getTransactionCount(bool,bool)": "54741525",
        "getTransactionIds(uint256,uint256,bool,bool)": "a8abe69a",
        "isConfirmed(uint256)": "784547a7",
        "isOwner(address)": "2f54bf6e",
        "owners(uint256)": "025e7c27",
        "removeOwner(address)": "173825d9",
        "replaceOwner(address,address)": "e20056e6",
        "required()": "dc8452cd",
        "revokeConfirmation(uint256)": "20ea8d86",
        "submitTransaction(address,uint256,bytes)": "c6427474",
        "transactionCount()": "b77bf600",
        "transactions(uint256)": "9ace38c2"
    },
    "gasEstimates": {
        "creation": {
            "codeDepositCost": "1063000",
            "executionCost": "infinite",
            "totalCost": "infinite"
        },
        "external": {
            "": "1989",
            "MAX_OWNER_COUNT()": "558",
            "addOwner(address)": "63367",
            "changeRequirement(uint256)": "21874",
            "confirmTransaction(uint256)": "infinite",
            "confirmations(uint256,address)": "709",
            "executeTransaction(uint256)": "infinite",
            "getConfirmationCount(uint256)": "infinite",
            "getConfirmations(uint256)": "infinite",
            "getOwners()": "infinite",
            "getTransactionCount(bool,bool)": "infinite",
            "getTransactionIds(uint256,uint256,bool,bool)": "infinite",
            "isConfirmed(uint256)": "infinite",
            "isOwner(address)": "609",
            "owners(uint256)": "837",
            "removeOwner(address)": "infinite",
            "replaceOwner(address,address)": "infinite",
            "required()": "780",
            "revokeConfirmation(uint256)": "23045",
            "submitTransaction(address,uint256,bytes)": "infinite",
            "transactionCount()": "670",
            "transactions(uint256)": "infinite"
        },
        "internal": {
            "addTransaction(address,uint256,bytes memory)": "infinite",
            "external_call(address,uint256,uint256,bytes memory)": "infinite"
        }
    }
}